:020000040000fa
:080000000001040000000000f3
:020000040000fa
:0400080006020000ec
:020000040000fa
:04000c0006020000e8
:020000040000fa
:0400100006020000e4
:020000040000fa
:0400140006020000e0
:020000040000fa
:0400180006020000dc
:020000040000fa
:04001c0006020000d8
:020000040000fa
:0400200006020000d4
:020000040000fa
:0400240006020000d0
:020000040000fa
:0400280006020000cc
:020000040000fa
:04002c0006020000c8
:020000040000fa
:0400300006020000c4
:020000040000fa
:04003400e6010000e1
:020000040000fa
:0400380006020000bc
:020000040000fa
:04003c0006020000b8
:020000040000fa
:0400400006020000b4
:020000040000fa
:04004400cc010000eb
:020000040000fa
:0400480006020000ac
:020000040000fa
:04004c0006020000a8
:020000040000fa
:0400500006020000a4
:020000040000fa
:0400540006020000a0
:020000040000fa
:04005800060200009c
:020000040000fa
:04005c000602000098
:020000040000fa
:040060000602000094
:020000040000fa
:040064000602000090
:020000040000fa
:04006800060200008c
:020000040000fa
:04006c000602000088
:020000040000fa
:040070000602000084
:020000040000fa
:040074000602000080
:020000040000fa
:04007800060200007c
:020000040000fa
:04007c000602000078
:020000040000fa
:040080000602000074
:020000040000fa
:040084000602000070
:020000040000fa
:04008800060200006c
:020000040000fa
:04008c000602000068
:020000040000fa
:040090000602000064
:020000040000fa
:040094000602000060
:020000040000fa
:04009800060200005c
:020000040000fa
:04009c000602000058
:020000040000fa
:0400a0000602000054
:020000040000fa
:0400a4000602000050
:020000040000fa
:0400a800060200004c
:020000040000fa
:0400ac000602000048
:020000040000fa
:0400b0000602000044
:020000040000fa
:0400b4000602000040
:020000040000fa
:0400b800060200003c
:020000040000fa
:0400bc000602000038
:020000040000fa
:0400c0000602000034
:020000040000fa
:0400c4000602000030
:020000040000fa
:0400c800060200002c
:020000040000fa
:0400cc000602000028
:020000040000fa
:0400d0000602000024
:020000040000fa
:0400d4000602000020
:020000040000fa
:0400d800060200001c
:020000040000fa
:0401080006020000eb
:020000040000fa
:04010c0006020000e7
:020000040000fa
:0401100006020000e3
:020000040000fa
:0401140006020000df
:020000040000fa
:0401180006020000db
:020000040000fa
:04011c0006020000d7
:020000040000fa
:0401200006020000d3
:020000040000fa
:0401240006020000cf
:020000040000fa
:0401280006020000cb
:020000040000fa
:04012c0006020000c7
:020000040000fa
:0401300006020000c3
:020000040000fa
:04013400e6010000e0
:020000040000fa
:0401380006020000bb
:020000040000fa
:04013c0006020000b7
:020000040000fa
:0401400006020000b3
:020000040000fa
:04014400cc010000ea
:020000040000fa
:0401480006020000ab
:020000040000fa
:04014c0006020000a7
:020000040000fa
:0401500006020000a3
:020000040000fa
:04015400060200009f
:020000040000fa
:04015800060200009b
:020000040000fa
:04015c000602000097
:020000040000fa
:040160000602000093
:020000040000fa
:04016400060200008f
:020000040000fa
:04016800060200008b
:020000040000fa
:04016c000602000087
:020000040000fa
:040170000602000083
:020000040000fa
:04017400060200007f
:020000040000fa
:04017800060200007b
:020000040000fa
:04017c000602000077
:020000040000fa
:040180000602000073
:020000040000fa
:04018400060200006f
:020000040000fa
:04018800060200006b
:020000040000fa
:04018c000602000067
:020000040000fa
:040190000602000063
:020000040000fa
:04019400060200005f
:020000040000fa
:04019800060200005b
:020000040000fa
:04019c000602000057
:020000040000fa
:0401a0000602000053
:020000040000fa
:0401a400060200004f
:020000040000fa
:0401a800060200004b
:020000040000fa
:0401ac000602000047
:020000040000fa
:0401b0000602000043
:020000040000fa
:0401b400060200003f
:020000040000fa
:0401b800060200003b
:020000040000fa
:0401bc000602000037
:020000040000fa
:0401c0000602000033
:020000040000fa
:0401c400060200002f
:020000040000fa
:0401c800060200002b
:020000040000fa
:0401cc000602000027
:020000040000fa
:0401d0000602000023
:020000040000fa
:0401d400060200001f
:020000040000fa
:0401d800060200001b
:020000040000fa
:10020000cf8920000eff20000e01880000000000b2
:10021000000020000000e000020032000001200089
:1002200020028800140007007a0007000000e000a8
:1002300003003a00e016220001002000020037000f
:100240000000200001002000810f7000010032003a
:1002500014000700000020000000e000020032004f
:1002600000000200000000005a2002000000000010
:100270000040da000000fe004440a900a033200046
:100280000000e0000300320000002000a001880010
:100290004440a800000006008a1f78008b1f7800e9
:1002a0000000060091018800800478000000eb0047
:1002b0001a003700e284440032a0b4009905ba0065
:1002c000e284440032a0b4009906ba00e2844400fb
:1002d00032a0b4000006eb00476fde00fd07b2005d
:1002e000636ce10003003a00ebff07000000eb0045
:1002f0000a003700606ce10004003a00005deb008a
:100300008b05e900fdff3e00040037006168e10055
:10031000010032000086eb000b00070019c7ba008d
:100320001905ba000e04e00003003a000a00e000dc
:10033000e0ff3a0000000600fe07b2009e018800c0
:100340008a047800f5ff3700395dba008b05e900b3
:100350000c003200295dba008b05e900080032006c
:100360000c00e00003003a00e284440032a0b40034
:10037000f5ff370019ddba008b05e900faff3a00f6
:100380008904e800e184440032a0b40000000600c3
:100390000000000000000000801f78003400f8001a
:1003a00000002000a00188000000fa00004080004a
:1003b0000000e8000040880084e0a9000080fa0006
:1003c0003400f9004f00780000400600809fbe0016
:1003d0003400f80000002000a00188000000fa00ae
:1003e000104080002140800061004000e080480013
:1003f00010408800214088008460a9000080fa0035
:100400003400f9004f00be00004006000040da0052
:100410000000fe0000000500889fbe008a9fbe000d
:100420008c1f7800670007006e00330003866c00a5
:100430006450e1002e0032006420e10033003200fd
:100440006150e1002f0032006120e10031003200f4
:1004500085855500eb07b000090020000804200046
:10046000050037000804440089844c000a0031006c
:100470000603430087834b000001530081815b002a
:10048000f8ff33000203be000800a0000804440087
:1004900089844c00f6ff3900c639dd008301730002
:1004a00001003200130020008904d1000884d30029
:1004b0000998a300050032000800a7000300a0006f
:1004c0008904d1000884d3008b05e8008904d10099
:1004d0000884d3000001eb000281d2001300070062
:1004e00001f0a1000cf0a70001f0a00046003700c9
:1004f0006420e100480032000801be000200be0096
:10050000f7ff37006120e100430032006000b800cf
:10051000f3ff37000000200001f82700f0ff37004c
:100520004f89de00820178003e0037008100200004
:10053000618055000b003d000b00200061fe2f0084
:100540000100e1001d00340082817100610164003e
:100550008904d1000884d3000000e800faff3a00c3
:100560007100200061006400030070000200600060
:100570000900320061044400e0844c000988a500b1
:10058000050032008b05e8006808e10002003a002f
:100590008904d1000884d300f20f20000258e10042
:1005a00005003d00c75ddd00f907b20089807500d8
:1005b00008007800000006000bf827008b00780088
:1005c000000005000004be00550007000003be0047
:1005d0000405be000200be0051000700844f7500f4
:1005e000000006000200be006450e1000500360075
:1005f0006420e100020036000968a30001003a000f
:100600000800be000160a0004f0678004f05be0044
:100610004f04be0000000600f0ff2f00f1ff27008e
:10062000f9ff3700881f7800030478000300e0001a
:1006300007003d0060001000e08018006001190014
:10064000e081190002003b0001f02d00030037009b
:100650000400070008f0a70001f0a0004f04780094
:1006600000000600889fbe008a9fbe0000827000c6
:100670000402710004827100260032000004be00f2
:100680000200be006011b8006b0920009502200036
:100690000182cf000a0039000541b1000082cf007d
:1006a000070039000541b1000982cf00040039007c
:1006b0000541b1000882cf00010039000541b100b9
:1006c00005425200120032000a003b008281710094
:1006d000610164008100d1000080d3008984d300cf
:1006e0000884d3008b05e8000442e800f7ff3a00d5
:1006f000070037000804440089844c0000004800cb
:10070000818048008b05e9000442e900f9ff3a00c6
:1007100086ff07004f05be004f04be000000060024
:10072000c70ade00f107b200f50fb2000800320080
:10073000e1cf4200020032000170a0002400050059
:10074000810f70000100320004080500440005001c
:10075000810f700002003a00140005008502e900d4
:100760000000400081c04800fcff3b000170a00079
:100770002400050000027800808f50000c0031003a
:1007800082814000830f5000090031008200400048
:1007900002003700c36078000201e9000200e000b7
:1007a000fcff3a0000000600315a78000201e9001f
:1007b0000200e000fcff3a0000000600881f7800fd
:1007c0000204780008017800630407000800400074
:1007d0004f047800000006000000fa00881f78002f
:1007e00000047800ea8157003fb99700880078003c
:1007f000e03d2000070007000000e0000200350097
:100800008040eb00017478004f0478000080fa000b
:10081000000006006200fa00889fbe008a1f780070
:1008200000057800810478000204780083007800d5
:1008300080f92f000f0040006f0607009a979f0075
:10084000a9979f000000eb00b09f9f001885fb0058
:100850008a04fb000a05ea004f55de005002200022
:10086000808f54000d003200e10f55000b003a005c
:100870000a017800880078002f9097009f919700d8
:1008800003000100a0979f000000e0008e003200ee
:100890003f9897000000e800b09f9f000a044400c2
:1008a00050022000808f5400040032000900e00054
:1008b000e6ff3a003f989700840037000000eb0005
:1008c000909f9f00809f9f00f0979f00e0979f0060
:1008d000d0979f00c0979f000700370041892000f4
:1008e0000100500000004000818820006100780075
:1008f000df98970001007000d09f9f008804780067
:1009000009047800384578008a00fb0040892000ff
:10091000180407000000e000f0ff3a00a1c2b30095
:10092000814f55000e003a00cf8897000180e90002
:10093000c08f9f0010007800c09f9f000000e00063
:1009400005003d000000ea00c09f9f005f989700ef
:100950000020a000d09f9f000904e8000f0037008e
:10096000c09f9f000000eb0005003700f2ff27004a
:10097000820f5000020032006a01b900028040007c
:100980000904780088047800b900fb000103b10075
:10099000e98f5000f5ff3600c09f9f00e0c2b30012
:1009a000984f1000020032000080eb001900370061
:1009b000a0c2b300d84f100007003a00cf889700bc
:1009c0000180e900c08f9f0010007800a09f9f0069
:1009d0000804e800100037000000eb00a09f9f0013
:1009e0008800780005003700f3ff2700830f5000d0
:1009f000020032006a02b9000400410001047800dc
:100a0000880078003101fb000203b100e90f5100ba
:100a1000f5ff3600a09f9f00984478008900fb00f6
:100a200000882000d30307000000e000020032002d
:100a30000804e800010037008044eb00c97f9f00f4
:100a400080c6b30080cf540004003a0098cf140051
:100a50000a003a006640500006003700c0c6b300e6
:100a600080cf540005003a0098cf140003003a00ec
:100a700065404000c07f9f000804e8001801fb00ab
:100a8000e3fb2f008f81410081f92f008f80400010
:100a9000a0f92f000f004000100007000000e00048
:100aa00009003a00e1fb2f008f804000a0f92f00e1
:100ab0000f004000140507000000e00002003500b0
:100ac0000804e80061ff37000080eb004f05780064
:100ad0004f04be000080fa0000000600889fbe00a0
:100ae0008a1f7800000478008244780003057800ab
:100af00070c6b30080cf54001a003c0000c0e9006b
:100b000080cf5400cd003d006d40500080cf540098
:100b1000770032000b003c007140500080cf540041
:100b200035013c0000c0e90080cf5400c3003d0007
:100b300050c2b30080cf54002c0132007c404000f2
:100b40000500370030c6b30080cf54001a003200d1
:100b50001e003c0000c0e90080cf540026013a008e
:100b6000b6003700f0c6b30080cf540060003200fa
:100b700007003c006640500080cf54001300320054
:100b80006540400080cf54001b013a00d40037007c
:100b900050c7b30080cf540055003200634040007e
:100ba00080cf54005200320002c7b30082cf5400fd
:100bb00011013a00ff0037001181e9008208780036
:100bc00078009000127578001101370028609000bd
:100bd000c2c6b300824f500007003a0011017800ee
:100be00064005100800878001000be004f89de00cc
:100bf000820178001400370012c7b300824f500002
:100c000003003a0011027800680052000500370026
:100c1000a2c6b300824f500006003a00910278004d
:100c200068805200800878005001be004000be007d
:100c3000050037001180e900800878001000780076
:100c4000cf80de006109b900009cbe000294be00a6
:100c50002862900085c6b300854f52000d00320017
:100c600025c6b300854f520004003a000000fb0087
:100c7000cf80de006109b9000800370045c7b30026
:100c8000854f520003003200e6c24200854f5200f9
:100c900004003a00cf80de006109b900009cbe006c
:100ca0000294be003802be002803be007800900007
:100cb000d1c2b300e00f5200e08f5a00e00f5b009a
:100cc000e08f5b0008003500881090000118a30039
:100cd00002003200b1c2b300030037000108a300d4
:100ce0005100320001c2b300017578004c0037009a
:100cf00028609000c2c6b300824f500008003a003e
:100d00001103780064005300800878001002be00d0
:100d10006033b8000400be000601be0014003700b6
:100d200012c7b300824f500003003a0091027800ce
:100d30006880520005003700a2c6b300824f500001
:100d400006003a001103780068005300800878001c
:100d50005001be004000be00050037001180e900d0
:100d600080087800100078008000eb006011b80067
:100d7000009cbe000294be002862900085c6b300ad
:100d8000854f52000d00320025c6b300854f52003a
:100d900004003a000080fb008000eb006011b80006
:100da0000800370045c7b300854f520003003200ea
:100db000e6c24200854f520004003a008000eb007a
:100dc0006011b800009cbe000294be0008109000a4
:100dd0000038a300140032003800be002801be0015
:100de000e00f5000e08f5800e00f5900e08f5900ed
:100df0000d00320080c7b30080cf540003003200e2
:100e000080c5b30080cf540007003a0078009000fe
:100e100001c3b300017578000000e800097578008f
:100e20000000e8007004980078009000000545007c
:100e30006a049800894078006900370028619000b2
:100e4000c0c4b300804f510006003a0091037800ff
:100e500068805300800878005001be004000be004a
:100e60000500370011017800640051008008780007
:100e70001000be00e6050700009cbe000294be0004
:100e8000b8009000780090000100e00002003d00f2
:100e9000d1c2b30008003700881090000118a300e9
:100ea00002003200b1c2b300030037000108a30002
:100eb0000400320001c2b300017578000000e800b0
:100ec0007004980078009000000545006a049800be
:100ed0008900fb0008007800530007004e0037002f
:100ee00028619000c3c6b3001180e900834f510010
:100ef000240032000a003c00e4c15100834f51003d
:100f00002700320083c1e800834f510015003200f2
:100f100020c6b300804f510020003a000a0037007d
:100f200043c7b300834f51001d003200e6c14100aa
:100f3000834f51001a00320010c7b300804f510098
:100f400016003a00060037001180e900800878009a
:100f500010007800485c9000084878002e003700a8
:100f60001180e9008008780010007800680a90007d
:100f7000cfa2de00612bb9000498be000690be002f
:100f8000250037008008780010007800680990007c
:100f9000cf91de000288be001f0037001180e900fb
:100fa0008008780010007800680c9000080878002d
:100fb000190037001181e9008208780012027800d8
:100fc000cfa2de00612bb900049cbe000694be00d7
:100fd000f8009000010545006a0498008040780000
:100fe00008007800990207000b0037007800900095
:100ff000097578000600370078009000000545006c
:101000000904e00001003a0059c2b300094d78001c
:101010000000e800700498000000eb004f05780025
:101020004f04be00000006002f04b000889fbe00e1
:101030008a9fbe008c9fbe008e1f7800000778003c
:1010400081f79f003e04be002e05be005e089000a2
:101050000000e00002003d0060002000500f9800fa
:101060008e00780020fb2f000f0040004d0207008b
:10107000e20f50000a003a0030002000100f9800e4
:10108000b1c9b3000ff0970081404000a08020005c
:10109000e1cf50000d003e00608020000b003700c3
:1010a0000000e0000f00340030002000100f980016
:1010b000b1c9b3000ff197008140410020812000a9
:1010c000e1cf500001003e00e0802000ee009000e3
:1010d000b0487800b06878001040780090409800e0
:1010e000f30037000000e00005003a0022fb2f006b
:1010f0000f014100001978008001eb00e700370084
:101100006022b8006033b8000800be000a01be00cb
:10111000870407000000e00001003d000bf0a20082
:10112000705927009f9897000088b900026a28002c
:1011300013002000e2040700640650009c9f9f00fb
:1011400013003b0063061600c0ff2f000006660078
:101150008c01ea00939f9f006d8120000800be0073
:101160000a01be00070037000c08a300030032008c
:101170003d02be002d03be00730507000c86d100a2
:10118000e88646000c00e000f7ff3c00180037003e
:101190000c00e00018003200c0ff2f0000066600bf
:1011a0009c9f9f006d8120006000b800020020001d
:1011b00003ff2300070037000c08a30003003200e0
:1011c0003d02be002d03be005f0507000c86d10066
:1011d000e88646000c00e000f7ff3c000002be007d
:1011e0000203be000800be000a01be005a04070048
:1011f0000004be000205be00de08900060c6b30019
:101200000ff29700804f520004003200600020006f
:1012100062c4b300824f520002003a009f9a9700c6
:101220006a80420081004000f1b79f00010378000e
:10123000f30f53000200340037012000f7b79f007e
:1012400000c3b300c0779f0056fb2f000f0343007d
:101250000e007800a0b79f00060778003d00370019
:101260000800be000a01be00080507000006be0017
:101270007fb1970068015100f2b79f004240a9007a
:101280000c0034002d0507000002be000203be0062
:101290000800be000a01be00a10507006022b800d8
:1012a00046782d0077192400270507000004be00aa
:1012b0000205be00e80047008e0020000802be00c4
:1012c0000a03be00b4b79f00c5b79f00d6b79f0002
:1012d000e7b79f000c01be00010478000c00370046
:1012e000a400200005002000c0fd2f000f004000da
:1012f000840107006fa89700ffa897000fb197001f
:101300009fb1970005c3b300056441000001be0012
:10131000e00f5100e08f5900030034000e07e90090
:10132000e10f4700eeff3a00880078003fb49700d5
:10133000cfb497005fb59700efb597000200370074
:1013400000c3b300806078000e07e900fcff3b009b
:10135000688740007fb397000600e0000700340074
:101360006022b8006033b8000800be000a01be0069
:10137000f40307000000e000b9ff3c000e03780012
:101380002fb7970051fb2f008f80400001035300bf
:101390009f9b970067804300909f9f00020037004b
:1013a0000603e9000000e9000101780082007800ee
:1013b00003c3b300b1cf1100f9ff3200909f9f002b
:1013c000de09900061c6b3000ff29700814f520012
:1013d0000300320061c4b300814f520002003a00a2
:1013e0000000e8000a0037001000200051c6b300da
:1013f0008ff2970081cf520005003200054078003f
:1014000050c4b2000080fb000000e9004f00de0085
:1014100083014000868f510001003400860178006e
:101420000300e0001d00350000c3b300868f5100ab
:1014300006003d0062c279006940400041c3b3002c
:10144000814f520001003c00694050008300e900d8
:101450008100410001003700840178000302e900a7
:1014600001037800a142780080cf5200faff3200d9
:1014700091c3b300814f500001003a00054be800d2
:101480000400e00005003d000201e9008301e800de
:101490001f9b97000603e800969f9f008ff397001d
:1014a0008700fb001f9a97000e00780006000700d7
:1014b0004f0778004f06be004f05be004f04be0028
:1014c0002f04b10000000600f0874700889fbe008f
:1014d0008a9fbe008c9fbe008e1f7800000478009b
:1014e000814478000205be00040678000b00e0008d
:1014f00002003c001b002000aa89200060c6b30047
:1015000080cf54000e00320060c4b30080cf54007e
:101510000b00320070c6b30080cf540003003200cd
:1015200070c4b30080cf540081003a00e40f46003d
:101530007f00350058089000800f56007c003d0069
:101540000c06e80060c6b30080cf540010003200e3
:1015500060c4b30080cf54000d003200081090002a
:101560000038a30004003a0058089000808f55000e
:1015700001003d005b0c9800580890000c005000e2
:10158000500c980002003b000000eb00500c98004b
:1015900018089000e80090000c00e00026003c00d5
:1015a00002c3b300827078000000e800100c9800bd
:1015b000d80890000100e00003003c008810900073
:1015c0000138a30005003200e8009000e2c2b30039
:1015d000827078000000e800100c98005808900015
:1015e0008c00ea00810f500001003d000006ea0077
:1015f0008c00ea00210c9800000646005c0c980064
:101600008b0f5600010034000b0678003c0c98004c
:10161000e800900018089000008040000c0178005d
:101620008a007800cc000700580890000c06500093
:101630004c0c9800900037008c8f550018003d002e
:10164000008040000b0178008a007800c20007008b
:101650001808900000804500100c98008b0556007b
:101660002b0c9800d80890000100e00003003c001b
:10167000881090000138a30006003200e8009000b6
:10168000e2c2b30082707800380890000000e800e1
:10169000300c980058089000400c980076003700f5
:1016a000008040000c0178008a007800aa00070042
:1016b0001808900000004600100c98008c8555001a
:1016c000d80890000100e00003003c008810900062
:1016d0000138a30005003200e8009000e2c2b30028
:1016e000827078000000e800100c98005808900004
:1016f000808f55000100340080057800e8009000dc
:1017000018089000008040008c0045000b01780014
:1017100091000700180890000b004000100c980082
:10172000580890008b0550002b0c98005200370091
:1017300018089000e80090009a7078000000e80017
:10174000100c9800d80890000100e00003003c0055
:10175000881090000138a30005003200e8009000d6
:10176000e2c2b300827078000000e800100c98001c
:10177000580890000000e000100034008b05e900dc
:10178000808f55000100340080057800e80090004b
:1017900018089000008040008a00e8000b017800e3
:1017a0006d000700180890000b004000100c980016
:1017b000580890008b0550002b0c9800e800900012
:1017c0001808900000804000095878000007e800e1
:1017d0000c00e00004003500b1c2b30001487800fd
:1017e0008e04780004003700d1c2b30001487800ad
:1017f0008e0478000c06ea007d8557008006eb0019
:1018000009003700a20020008c0078007280570089
:10181000310007007fb097008fb89700016d780006
:10182000000678008d06e8000c00e000f5ff3c00a3
:101830000d00e00009003a008e04780000c3b300f8
:10184000805c7800050037008d06e900fc805700b9
:1018500061c07e0002c3b300825c40000d00e00066
:10186000f9ff3c00e800900018089000008040005c
:1018700080845400390c98000810900074006000b7
:10188000f00f50000e003a00980890007800900089
:1018900000804000a808900001004000b8089000b7
:1018a00001004000c808900001004000f8089000c6
:1018b000810f500002003d0000805000000c980095
:1018c0004f0778004f06be004f05be004f04be0014
:1018d0000f01b100000006008002780001037800cb
:1018e000110009000203d80080017800830a780003
:1018f0000299b90002015300920298000500780095
:1019000000000600881f78008a9fbe008c9fbe00e2
:10191000000478000205be000406be000401be00fb
:101920000a00be00e6020700008cbe000c01be00eb
:10193000100407000005550081855d002a04980009
:101940003b049800080078004f06be004f05be001b
:101950004f04780000000600800178000200370084
:10196000b15978000201e9000200e000fcff3a00f2
:1019700000000600020037000304e0000600320009
:101980000001780002007800b041780081cf51005a
:10199000f9ff3a00010037000001eb000200780077
:1019a00000000600889fbe0000047800e684400026
:1019b0001900d0004500de00f27f2000820f5000a9
:1019c00010003a00000ceb00990478006f8164006d
:1019d000200020001b003a00210190000200e000de
:1019e00018003a00110190000200e00015003a00d2
:1019f000100020001100e000120032002000200042
:101a0000100037000000e00004003a0001007800f8
:101a1000fb0107000000e00008003c00f200280085
:101a20001901610001fe2300810c710021c02f000b
:101a3000010c40000080eb0002003700000ceb00be
:101a40000000eb004f04be0000000600fc874700ca
:101a5000889fbe008a9fbe008c9fbe008e1f7800ac
:101a60000006780080c5b30080cf50000a00320025
:101a70007740400080cf50000a00320069404000ab
:101a800080cf50000b003200f086200080bf9f0006
:101a9000ae0020000a003700e285200082bf9f00d0
:101aa00006003700f386200083bf9f008e002000d1
:101ab00003003700f486200084bf9f000e01200041
:101ac0003c02be002c03be000605be000404be009e
:101ad00040c6b30080cf5000030032006540400094
:101ae00080cf50000b003a00e00f5200e08f5a0008
:101af000e00f5b00e08f5b0006003d006000b80077
:101b00006011b8000404500085845800060559008f
:101b100087855900e80f570004003200400020007c
:101b2000f00f570038003a00010037003000200065
:101b3000e00f5400e08f5c00e00f5d00e08f5d007f
:101b400004003a00dc0890008d0120000100e00054
:101b5000060032008e00e900888060008fba97008e
:101b6000e5c07800f1ef9f007d0120008000780043
:101b70008100e900050033008b05d1000a85d30000
:101b80008984d3000884d300f9ff3700089ebe0083
:101b90000a96be00120037008d06e9008e00e900ab
:101ba000848060000fb99700e2c1780082fd2f00a9
:101bb0000f01410003f17e00800078008100e90000
:101bc000050033008783d1000683d3008582d300cc
:101bd0000482d300f9ff3700049ebe000696be00c3
:101be0003c02be002c03be00e00f5200e08f5a0002
:101bf000e00f5b00e08f5b008b0034000d00e00025
:101c0000e5ff3c00880037002c60900081c6b300df
:101c1000814f50000b00320006003c000004e00041
:101c200008003200e6c05000814f50004e003a00dc
:101c300004003700c1c6b300814f50004a003a008b
:101c4000210037000800e00004003a005c08900022
:101c50008d0120000000e0000600320011000900a4
:101c60000e84d8000fb99700e2c07800f1ef9f0012
:101c70007d012000110009000e84d8000a00370001
:101c8000110009000e04d8008d06e9000e81b9008c
:101c9000020454008fb8970061417c0081fd2f0041
:101ca0008f80400082f07e00000478000800e00091
:101cb000020032000d00e000f1ff3c00cfc4de0066
:101cc000614db90025003700e00f5400e08f5c0043
:101cd00004003a005c0890008d0120000000e00044
:101ce000070032006171b9000800be001e03070042
:101cf0008fb99700e3417800f3ef9f007d0120004a
:101d00006171b9000800be00070307000b0037002f
:101d10006171b9000800be00e90107008d06e90005
:101d200000f1b900020454000fba9700e4427c00ad
:101d300084fd2f000f02420005f27e000004be0069
:101d4000e00f5000e08f5800020032000d00e0006c
:101d5000efff3c004fcdde008a057800089ebe00f4
:101d60000a96be0030003700e00f5400e08f5c00a0
:101d7000e00f5d00e08f5d0004003a005c08900019
:101d80008d0120000000e000090032006172b900fe
:101d9000612bb9000800be000a01be009b030700ca
:101da0000fba970064427800f4ef9f007d01200095
:101db0006172b900612bb9000800be000a01be00c3
:101dc0008b0307000d0037006172b900612bb90069
:101dd0000800be000a01be00900307008d06e9005e
:101de00000f2b900040454008fba970065427c00e9
:101df00085fd2f008f82420084f27e00009ebe008f
:101e00000296be003c04be002c05be00e00f54004c
:101e1000e08f5c00e00f5d00e08f5d0002003400a9
:101e20000d00e000e8ff3c00e80f570010003a000a
:101e30000c1090000038a3000d003200f78f560000
:101e400006003e0085fd2f008f824200e5c07e0027
:101e500000c3b30080cf5000050032008d06e900ba
:101e600002c3b30081fd2f008f80400082f07e000e
:101e700078811600120e98006c00900083fd2f00f0
:101e80008f8141008d804100b3fe07001c08900047
:101e9000dc089000810f500006003d0000805000db
:101ea000000e98000c1090000040a1000016980051
:101eb0000f0037000100e0000d003d008c10900085
:101ec000f4806000f08f500009003a007c09900017
:101ed000fc009000810051000c09900082805000ad
:101ee000008050004240a90001003400000e98001c
:101ef0004f0778004f06be004f05be004f04be00de
:101f0000cf01b100000006000400fa00889fbe0067
:101f10008a9fbe008c1f78000004780001067800bc
:101f2000f80d90007800900080855500080890001a
:101f3000808555001808900080855500280890007d
:101f4000808555003808900080855500480890002d
:101f5000808555000002220090bf9f0000032300ef
:101f6000a0bf9f00081090000028a30015003a00b1
:101f70000b00e000130034000b0578008a047800a1
:101f8000e20f55000100360029002000c801900032
:101f900009017800ee80570058009000030001000e
:101fa000500498000000e0008c00320068089000a7
:101fb00009004000600c9800090555004240a90046
:101fc000eeff3c00780190000200e0000c003400bd
:101fd000c80190008c0078005800900003000100b8
:101fe000500498008080eb000000e0007c0032008c
:101ff000e80890007800900000804000600c980095
:10200000880c90000900e0001100340009057800f8
:10201000e28f5400010036002a002000c801900021
:102020000a017800ec80570058009000030001007e
:10203000500498000000e00068003200680890003a
:102040000a004000600c98008a845400edff3700bd
:10205000180990000200e0000c003400c801900054
:10206000e800900058009000030001005004980020
:102070008080eb000000e00059003200e80890008a
:102080001808900000804000600c9800a80c900098
:102090000900e0001100340009057800e28f5400c7
:1020a000010036002a002000c80190000a017800d3
:1020b000ec80570058009000030001005004980085
:1020c0000000e00045003200680890000a0040006f
:1020d000600c98008a845400edff370038099000a6
:1020e0000200e0000e003400e800900018089000a4
:1020f00080804000c801900058009000030001005b
:10210000500498008080eb000000e00034003200b2
:10211000e80890003808900000804000600c9800ab
:10212000c80c90000900e000110034000905780097
:10213000e28f5400010036002a002000c801900000
:102140000a017800ec80570058009000030001005d
:10215000500498000000e000200032006808900061
:102160000a004000600c98008a845400edff37009c
:10217000081090008000eb000028a3001800320037
:102180000b00e000160034008b047800090578008d
:10219000e28f5400010036002a002000c8019000a0
:1021a0000a017800ee8057005800900003000100fb
:1021b000500498000000e000080032006808900019
:1021c0000a004000600c98008a8454004240a90034
:1021d000eeff3c008000eb00010037008080eb0048
:1021e000010078004f0678004f05be004f04be0086
:1021f0000080fa00000006000108780000000600d8
:10220000e600400011017800050028008502610009
:102210006f01610082087800020032001200200085
:1022200011003700a0019000120020000300e00020
:102230000d003a00900190000300e0000a003a000f
:102240001000e00008003a00360037006403400048
:102250009608780080017800530b78009009780088
:102260000408780070015100110278000400e000b9
:10227000f6ff3200130037006402400014037800b8
:102280004f33de00838141008308730080017800b2
:10229000d3037800cf3bde0014037800060343002d
:1022a000068a7300130278000402420010037800cb
:1022b0004f33de00860972009001780003884100e8
:1022c0000201e90091017800ef8f5100eaff36002a
:1022d0001000370080017800530378004f33dd0091
:1022e0001002d100040873006402400094037800d7
:1022f000cf3bdd001303d100868973001103780002
:102300004f33dd009401d100030a73009108d1001e
:102310000201e80091017800ff8f5100edff3e00bf
:10232000ef886100918872000200780000000600ca
:102330008f1fd100160307008f87e9000000e0001f
:1023400000000600809feb00110307008f87e90063
:102350000000e000000006002800fa00889fbe0090
:102360008a9fbe008c9fbe0003866b008f00070013
:102370006400e100440032006408e1004a003200d9
:102380006100e100460032006108e10049003200ce
:10239000ec0647006000b8003d02be003d03be00f1
:1023a000f48657006011b8003d04be003d05be0034
:1023b0007d0320000b0037000000a0008d06e9001f
:1023c000130032000402420085824a0006034b00db
:1023d00087834b00000040008180480002014900d3
:1023e000838149000802520089825a000a035b0077
:1023f0008b835b00f0ff3b000802420089824a00a9
:102400000a034b008b834b008d06e900edff3a0079
:102410008482720086827200f707b200878272009f
:1024200001003200150020001e0490003e0b9000b9
:1024300006035400e63fb0000368a3000700320023
:102440000000a7000500a0008301d1000281d30095
:102450008180d3000080d3000603e8008301d1000f
:102460000281d3008180d3000080d3000002eb0002
:102470000482d2002100070003f0a1000cf0a700a5
:1024800003f0a0005d003700640247006408e1002b
:10249000570032003400be003401be00f6ff3700a2
:1024a0006108e100520032006011b8006000b8001d
:1024b000f1ff370003ff270002002000fbff370079
:1024c000839f68000100e00002003d0060001000f2
:1024d000e08018000300e00002003d0060011100f0
:1024e000e0811900100107004f00e00002003b00ee
:1024f00060001000e08018000000060018002000b6
:1025000057002000080453000d003d000600200085
:1025100097fc2f000740e1001e0034008482720007
:10252000610260008301d1000281d3008180d30069
:102530000080d3000804e800f8ff3a0047002000bc
:102540006104600005047400040464000d0032009e
:1025500061004000e080480060014900e0814900de
:1025600003b8a500070032000603e8006538e10063
:1025700004003a008301d1000281d3008180d3009e
:102580000080d300f87f20000830e1000300350010
:10259000080378006000b8006011b8004433dd0023
:1025a000f300b200830173000000060068044700d6
:1025b0000294be000094be00fc0447008694be0056
:1025c0008494be0009007800ba0207000800780071
:1025d000b802070099007800814f70000b003b00a3
:1025e0000800be00930207004f00b100030037004f
:1025f000f3ff2700f2ff2f006110b9004f06be0065
:102600004f05be004f04be000080fa000000060027
:102610008103780042f807000001be006000b800a6
:102620000478a30013003a006220e10015003e0088
:102630000d0039008301d1000281d3008180d300d5
:102640008301d1000281d3008180d3008301d100b6
:102650000281d3008180d3000538b000c42add0098
:10266000f300b2008381720007f0a70003f0a0001e
:1026700000000600f3ff2700f2ff2f006110b900f1
:10268000fbff370003ff2700f7ff37001400fa00b5
:10269000889fbe008a9fbe008c9fbe000004be00c3
:1026a0000205be00680047000a90be000890be0008
:1026b000800207000070a7000bf0a100304320004b
:1026c0009e02900080825200b0fe2f000028e100a0
:1026d00011003d00b0fc2f000028e100150034007f
:1026e0001e0990008e0890007e0090000501b00049
:1026f0000201d1008180d3000080d3008502e80070
:10270000fbff3a000b00e000bcff3b006000100044
:10271000e0801800b9ff3700f0ff2f00f1ff27001d
:102720000b00e000b5ff3b00010028000000200086
:10273000b2ff37006000b800b0ff37004f89de00fd
:1027400082017800820237002800fa00889fbe00cc
:102750008a9fbe008c9fbe0003866b0093ff07001c
:102760000028a30064003a000128a30067003a0093
:102770000008a30062003a000108a30065003a00c7
:102780001e009000be08900081064000ed3fb100a1
:10279000f4805700ee019000111ab8008e099000e5
:1027a000311bb8009e099000311cb800511db800c3
:1027b000f485570046000700fe0190003a0007002c
:1027c0008b85e8003e0007008e099000400007005e
:1027d000ee019000340007008b85e8003800070008
:1027e0008e099000400007009e0990001b18b80059
:1027f000890440000a854800fe019000340007006b
:102800008b85e80038000700ee01900030000700db
:102810008e0990001b18b800890440000a85480002
:102820000a98a30008003a000402420085824a0088
:1028300006034b0087834b0008044c0089844c003e
:102840000a054d008d06e90084827200850273003e
:102850004c3add00850272000100320015002000b4
:10286000443ade001400b2004538de00cb45dd00fe
:102870000b007000c540de00cb4ddd008b8070008a
:102880004549de00cb55dd000b017100c551de006e
:102890000d03780019ff070003f0a1000cf0a7005a
:1028a00003f0a00055ff37001b18b8008502400058
:1028b00006834800e0834b0060044c0007003700ab
:1028c0001b18b8000603400087834800faff370052
:1028d0001b18b8008703400008844800e0844c00bf
:1028e00060054d00000006001b18b80008044000f9
:1028f00089844800faff37000108a3003cff3a0032
:102900005800be005801be00e3ff37000008a300d6
:1029100037ff3a0009047800f9ff37000000000093
:1029200007f0a2001c0137006022b8000602200058
:102930000000d0008180d2000482d2008582d200c3
:102940000000a0000202520083825a0003003100fe
:102950000202420083824a000000a1000603e9004f
:10296000f3ff3a0000000600efff07000400be007e
:1029700000000600020ab900001bb9000200b800fe
:10298000810042008100430000000600889fbe00d5
:102990008a9fbe0030044200b0844a0030054b00dc
:1029a00090854b006000b1000898be000a90be0000
:1029b0000440e10005c8e10006d0e10007d8e100cd
:1029c00002003100680040001008e8004f05be001a
:1029d0004f04be0000000600889fbe008a9fbe0014
:1029e0003004be002005be000418540005985c00a9
:1029f00006185d0007985d00110020000440e1000a
:102a000005c8e10006d0e10007d8e1000100390067
:102a10008000eb00108810004f05be004f04be0080
:102a2000000006001200fa00889fbe008a9fbe00c8
:102a30008c9fbe00e0b79f00f1b79f0082bf9f0050
:102a400093bf9f000605be000404be000000eb001b
:102a5000d0b79f00c0b79f00b0b79f00a0b79f003e
:102a600090b79f00000678005fb19700cfb0970045
:102a7000820141003fb097000200e00004003d00e9
:102a8000370007007e805700c0ff070003003700b3
:102a9000330007007e805700cfff0700dfb69700a6
:102aa0000d00e0000c0035006fb29700ffb29700f8
:102ab0000fbb97009fbb9700100020000100200073
:102ac0006011b8000002720081827200020373007c
:102ad000838373001b0007000c06e800010420003c
:102ae000810f5600e0ff3a000d00e00004003d00b9
:102af0000802be000a03be007e805700a3ff070045
:102b00005fa897000000e00005003a001fb29700a0
:102b1000afb297003fb39700cfb39700090007000b
:102b20006fb09700ffb097000fb997009fb997005b
:102b30004f06be004f05be004f04be000080fa00e5
:102b4000000006000100070000000600a4b79f0077
:102b5000b5b79f00c6b79f00d7b79f00000006001b
:102b60004f09de0082817100b3b79f004f01de0084
:102b70008180400082807000a1b79f008fb09700d5
:102b80004f09de00000040000200700090b79f0077
:102b90007fa897004f01de00818040008280700096
:102ba00081b79f000d0007004f3ade000000400093
:102bb00004007000f0af9f0008000700040242000c
:102bc00085824a0006034b0087834b00dfff070026
:102bd0000802be000a03be00000006002fb29700e4
:102be000bfb297004fb39700dfb397000000060015
:102bf000881f780018002000881f780089ff0700d0
:102c00008f87e9004f04780000000600801feb006a
:102c100084ff07008f87e90000000600889fbe0040
:102c20008a9fbe00e00f5000e08f5800e00f59006f
:102c3000e08f59000c003d006044b8006055b800ba
:102c40000000540081805c0002015d0083815d0012
:102c5000180020001500070008003d0018000700bc
:102c60000004eb00050037000004eb000f00070034
:102c700002003d001200070018002000dcff0700e2
:102c80000800e000060032006022b8006033b8009f
:102c90000000520081805a0002015b0083815b00ca
:102ca0004f05be004f04be0000000600e00f5200ba
:102cb000e08f5a00e00f5b00e08f5b000000060031
:102cc0006044b8006055b8000402540085825c007e
:102cd00006035d0087835d0000000600889fbe003c
:102ce0008a9fbe008c1f7800e00f5000e08f5800d4
:102cf000e00f5900e08f59000d003d006044b8001e
:102d00006055b8000000540081805c0002015d0045
:102d100083815d001c0020000820e10009a8e1007b
:102d20000ab0e1000bb8e1000d003d0008003700db
:102d30000006eb00e00f5200e08f5a00e00f5b004e
:102d4000e08f5b0006003d006044b8006055b800ad
:102d50000402540085825c0006035d0087835d00e9
:102d6000aaff07000c00e000060032006022b80055
:102d70006033b8000000520081805a0002015b00fd
:102d800083815b004f0678004f05be004f04be00f4
:102d900000000600000000002800fa00889fbe0026
:102da0008a9fbe008c9fbe00070678008786690058
:102db0000c003b00030478008704780008f0a100b1
:102dc00009f0a100840f5000858f5800860f59002c
:102dd000890f5c00030033000cf0a20001003a00f0
:102de0000cf0a100f1fd07006400e1005f0032007b
:102df000780147006408e100610032006c0147007f
:102e0000748557003200be001201be003a04be00b5
:102e10001a05be001e039000be0a900085035300f1
:102e200006003d000004fd008104fd000205fd00d8
:102e30008305fd008703ea00050378000df8a30071
:102e40000400320060041400e0841c0060051d00d2
:102e5000e0851d006022b8007d0320000d38e100f0
:102e60008006eb000b0039004433dd00f300b200b4
:102e70008301730039003700848272000d027800ec
:102e8000e10664008b85d1000a85d3008984d300d4
:102e90000884d3008703e900f7ff3b0008004000e7
:102ea000898048000a0149008b81490004003b00e9
:102eb00060001000e080180060011900e081190036
:102ec0000358a300090032008d82720084827200d0
:102ed000610260008301d1000281d3008180d300b0
:102ee0000080d3000603e8001b0037000348a3005e
:102ef00017003a000600e000170034000603e9005e
:102f00000d00a30000004800818048000201490034
:102f1000838149000348a3000f003a000600e00047
:102f2000090034000603e9000000400081804800e9
:102f3000020149008381490001003a000003eb00cf
:102f40000348a300f5ff32006022b80002003700fa
:102f5000848272006182660068fd070003f0a100b0
:102f60000cf0a70003f0a000a4fd370064014700a7
:102f70006408e10002003a000df8a3009cfd3a004d
:102f80003200be001201be009cfd370000000000b0
:102f9000889fbe008a9fbe008c9fbe000404be00b6
:102fa0000605be00809fbe00829fbe002f00070066
:102fb000040678000800be000a01be002b000700ce
:102fc000840678004f03be004f02be008d4f76008e
:102fd0007fb0970013003300f0ff2f008b8f6b0042
:102fe00006003b000d0666000c00a7000a00370033
:102ff00007f0a600100020000a003700880f5200da
:10300000898f5a008a0f5b008b8f5b0003003900a9
:103010001000200001003e000000200007f0a70083
:103020000000ea004f06be004f05be004f04be0080
:1030300000000600e48240001078a3000700320080
:10304000640240001178a3003400be001401be00e9
:10305000040032000330a700000006003500be0067
:103060001501be000330a0000000060005ff270088
:1030700005826100070032000428e10001003200ef
:10308000240005000600070001003a004400050086
:103090000408050002000700f9ff3a0014000500cb
:1030a0006f826100810270008502710085027200ea
:1030b00000000600800078005002be005003be00f1
:1030c0004439de00f700b200f37f20000301610005
:1030d000090032000218e10016003a008501720072
:1030e00083017300838173000008200015003a00fb
:1030f0004000200013003700850172008301730037
:103100008381730005003a0004a8be0006a8be0033
:10311000100020000b0037000201e9000402420009
:1031200085824a0006034b0087834b000748a300b3
:10313000f9ff32000740a00004a8be0006a8be00a8
:1031400020002000800098009200980000000600f7
:10315000881f7800030478000300e00007003d00aa
:1031600060001000e080180060011900e081190083
:1031700002003b0001f02d000300370004000700af
:1031800008f0a70003f0a0004f047800000006003c
:10319000889fbe00008270000402710004827100ea
:1031a0002400320036432000c50020008383cf0076
:1031b0000a0039000541b1008283cf0007003900c1
:1031c0000541b1008183cf00040039000541b10001
:1031d0008083cf00010039000541b10085c3530051
:1031e0006022b800120032000a003b0084827200a4
:1031f000610260008301d1000281d3008180d3008d
:103200000080d3000603e8008743e800f7ff3a0098
:10321000070037000000400081804800020149009b
:10322000838149000603e9008743e900f9ff3a007a
:0c323000b2fc07004f04be0000000600c6
:020000040000fa
:10323c000000000000000000000000000000000082
:10324c00000000005f000000000000000000000013
:10325c000000000007000000070000000000000054
:10326c00001400007f1400007f1400000000000018
:10327c00002400002a7f00002a1200000000000039
:10328c00002300001308000064620000000000002e
:10329c0000360000495500002250000000000000dc
:1032ac00000000000503000000000000000000000a
:1032bc00001c000022410000000000000000000083
:1032cc0000410000221c0000000000000000000073
:1032dc00000800002a1c00002a0800000000000062
:1032ec0000080000083e0000080800000000000074
:1032fc0000a00000600000000000000000000000c2
:10330c000008000008080000080800000000000089
:10331c0000600000600000000000000000000000e1
:10332c000020000010080000040200000000000053
:10333c00003e000051490000453e00000000000026
:10334c0000000000427f0000400000000000000070
:10335c0000620000514900004946000000000000d6
:10336c000022000041490000493600000000000026
:10337c0000180000141200007f1000000000000074
:10338c000027000045450000453900000000000002
:10339c00003c00004a4900004930000000000000d9
:1033ac00000100007109000005030000000000008e
:1033bc0000360000494900004936000000000000ba
:1033cc000006000049490000291e00000000000012
:1033dc000000000036360000000000000000000075
:1033ec0000000000ac6c00000000000000000000b9
:1033fc000008000014220000410000000000000042
:10340c00001400001414000014140000000000004c
:10341c000041000022140000080000000000000021
:10342c00000200000151000009060000000000002d
:10343c000032000049790000413e0000000000000d
:10344c00007e000009090000097e00000000000059
:10345c00007f0000494900004936000000000000d0
:10346c00003e00004141000041220000000000002d
:10347c00007f000041410000221c00000000000001
:10348c00007f000049490000494100000000000095
:10349c00007f000009090000090100000000000085
:1034ac00003e00004141000051720000000000008d
:1034bc00007f000008080000087f000000000000ea
:1034cc00004100007f4100000000000000000000ef
:1034dc0000200000404100003f01000000000000ff
:1034ec00007f0000081400002241000000000000d2
:1034fc00007f000040400000404000000000000041
:10350c00007f0000020c0000027f000000000000a1
:10351c00007f000004080000107f00000000000085
:10352c00003e000041410000413e00000000000050
:10353c00007f0000090900000906000000000000df
:10354c00003e000041510000215e00000000000020
:10355c00007f00000919000029460000000000004f
:10356c00002600004949000049320000000000001c
:10357c0000010000017f00000101000000000000bc
:10358c00003f000040400000403f000000000000f1
:10359c00001f000020400000201f00000000000061
:1035ac00003f000040380000403f000000000000d9
:1035bc000063000014080000146300000000000009
:1035cc000003000004780000040300000000000069
:1035dc00006100005149000045430000000000005c
:1035ec00007f0000414100000000000000000000ce
:1035fc000002000004080000102000000000000081
:10360c0000410000417f00000000000000000000ad
:10361c000004000002010000020400000000000091
:10362c00008000008080000080800000000000000e
:10363c000001000002040000000000000000000077
:10364c0000200000545400005478000000000000da
:10365c00007f0000484400004438000000000000d7
:10366c000038000044440000280000000000000066
:10367c000038000044440000487f000000000000b7
:10368c0000380000545400005418000000000000e2
:10369c00000800007e09000002000000000000008d
:1036ac0000180000a4a40000a47c0000000000008e
:1036bc00007f0000080400000478000000000000f7
:1036cc00000000007d000000000000000000000071
:1036dc0000800000847d000000000000000000005d
:1036ec00007f0000102800004400000000000000d3
:1036fc00004100007f4000000000000000000000be
:10370c00007c000004180000047800000000000099
:10371c00007c0000080400007c0000000000000099
:10372c000038000044440000380000000000000095
:10373c0000fc000024240000180000000000000021
:10374c000018000024240000fc0000000000000011
:10375c00000000007c0800000400000000000000d5
:10376c000048000054540000240000000000000039
:10377c00000400007f440000000000000000000076
:10378c00003c0000404000007c00000000000000f5
:10379c00001c000020400000201c00000000000065
:1037ac00003c000040300000403c000000000000e5
:1037bc000044000028100000284400000000000015
:1037cc00001c0000a0a000007c0000000000000015
:1037dc0000440000645400004c4400000000000051
:1037ec00000800003641000000000000000000004e
:1037fc00000000007f00000000000000000000003e
:10380c00004100003608000000000000000000002d
:10381c000002000001010000020100000000000095
:10382c00000200000505000002000000000000007e
:10383c00496e000069740000696100006c69000049
:10384c00736900006e6700002e2e0000002500003a
:10385c00302e000035660000204d0000687a000014
:10386c0000250000302e000034660000204b0000c4
:10387c00687a0000002500006c64000020480000fd
:10388c007a000000202000002020000020200000f2
:10389c00202000002020000020200000202000001c
:0438ac000000000018
:020000040000fa
:1038b0000200fa00004f780010012000201088005c
:1038c00007e2a8000080fa00000006000000fa00ed
:1038d00007e2a9000080fa00000006001200fa00ca
:1038e000004f9800510798006207980073079800ee
:1038f000040f98000000eb00000f78005e009000bd
:103900000000e000050032006e0090000000e000c2
:103910000200320010002000010037000000eb0020
:10392000604798007e0090000000e0000500320033
:103930000e0890000000e00002003200100020009d
:10394000010037000000eb00704798006e409000c7
:103950000004a2000004e000060032007e40900057
:103960000004a2000004e000020032000080eb002e
:10397000d50037000942a9000602a800010037005f
:103980000000000041108000004020000080600026
:103990000000e00002003200e0ff2f00ca00370004
:1039a00030108000610060000000e000f4ff3a0089
:1039b0000e4890000080fb0000004000800078006e
:1039c0006e4090000004e000020032000000eb00b6
:1039d0000100370010002000010070001010880066
:1039e000010037000000000041108000004020006e
:1039f000008060000000e00002003200d0ff2f00d5
:103a0000b1003700411080000000240000806000f9
:103a10000000e000f3ff3a004110800000002800a1
:103a2000008060000000e00002003200c0ff2f00b4
:103a3000a50037000000eb00100798001e003700bb
:103a40001e009000de0090000080400010407800d2
:103a50000080fb001010880001003700000000000b
:103a60004110800000402000008060000000e00065
:103a700002003200b0ff2f00930037004110800099
:103a800000002400008060000000e000f3ff3a0026
:103a90004110800000002800008060000000e0006d
:103aa00002003200a0ff2f00870037001e009000a8
:103ab0000000e800100798009e0090006e00900043
:103ac000808f5000deff35007e4090000004e00053
:103ad0006e0032006e4090000004e00028003200ca
:103ae0000622a800010037000000000041108000fd
:103af00000402000008060000000e0000200320072
:103b000090ff2f00700037003010800062006000ce
:103b10000000e000f4ff3a000e4890000080fb0037
:103b2000000040000000a0001010880001003700d5
:103b30000000000041108000004020000080600074
:103b40000000e0000200320080ff2f005e0037001e
:103b50004110800000002400008060000000e000b0
:103b6000f3ff3a0041108000000028000080600050
:103b70000000e0000200320070ff2f00520037000a
:103b80000000eb00200798003c0037003010800058
:103b90007f0060000000e0000200320060ff2f00a4
:103ba000490037000662a80001003700000000004d
:103bb0004110800000402000008060000000e00014
:103bc0000200320050ff2f003f003700301080000d
:103bd000680060000000e000f4ff3a002e00900052
:103be000fe009000008040000110800081407800bd
:103bf000014878001e0fe8000e0890008000e900e0
:103c00002e0090000080680000f0a7000000ea008d
:103c10000000e9004f00de00004078000080fb005b
:103c2000610060004500dd00311080000150a100fe
:103c300001007000301088000682a80001003700e3
:103c40000000000041108000004020000080600063
:103c50000000e0000200320040ff2f001a00370091
:103c600030108000700060000000e000f4ff3a00b7
:103c70002e0090000000e80020079800ae009000a1
:103c80000e089000808f5000c0ff35000642a8004b
:103c900001003700000000004110800000402000bb
:103ca000008060000000e0000200320030ff2f00c2
:103cb0000500370030108000640060000000e00064
:103cc000f4ff3a001e0078000080fa0000000600b1
:103cd0000c00fa002047980021079800320798004e
:103ce00043079800540798005e029000ce019000b0
:103cf0003e019000ae0090002e409000f7fe0700bd
:103d0000000f78001e0078000000e00006003d0073
:103d10000942a90040108000680060000000e00037
:103d2000010032000642a8001e0078000080fa0060
:103d3000000006000200fa00e4fe07000000eb00ad
:103d4000000f780004003700004c2d001100200007
:103d5000a60107001e0fe8001e007800e90f5000c2
:103d6000f9ff3400004c2d00110020009f010700d6
:103d70000080fa00000006000400fa0020479800c6
:103d800000c8b300004f7800ae4090001147980083
:103d90000002eb008001eb00220020008e00780082
:103da000c0c3b300caff07000080fa00000006008d
:103db0000600fa004047980000c8b300004f7800a2
:103dc00030cdb30010479800ce40900021479800b6
:103dd0000002eb008001eb00320020008e00780032
:103de000c0c3b300baff07000080fa00000006005d
:103df0000400fa002047980000c4b300004f780088
:103e0000ae409000114798000002eb008001eb00eb
:103e1000220020008e007800c0c3b300acff070072
:103e20000080fa00000006000200fa00004f78004f
:103e30001147980000cbb3001e404000ceff0700a2
:103e40009e409000300020000008dd006f406000c0
:103e5000c9ff07001e4090000080fb004300dd000a
:103e60004480de00004078006f40600070404000f9
:103e7000c1ff07000080fa00000006000e00fa00f3
:103e8000404f98004e489000ff4f500002003c0009
:103e900000c2b300404f9800e19129004e489000c5
:103ea0000000fb000002b1004300dd00008f400075
:103eb00000c4b300204798000e80e8000000e8002e
:103ec000820020009e0078002af207000e80e800a1
:103ed0000002eb008001eb009200200080007800df
:103ee000c0c3b3007aff07000080fa00000006009c
:103ef0000200fa00000f7800040037001e0078006e
:103f0000104078001e0fe800dcff07001e0078005c
:103f1000104078000004e000f8ff3a000080fa004a
:103f2000000006000400fa000000eb00000f78001b
:103f3000110037000000eb00100798000a0037005e
:103f40001e009000804078001e007800004078003d
:103f5000b5ff070000c2b300c8ff07001e009000b5
:103f60000000e800100798001e009000ef0f5000be
:103f7000f3ff36001e0fe8001e007800e70f500028
:103f8000ecff36000080fa00000006000000fa0096
:103f9000e0cab30078ff070000f8240021012000e8
:103fa0001201070050cdb30073ff070000c8b30033
:103fb00071ff070000f82400210120000b01070019
:103fc00080cab3006cff0700f0c1b3006aff0700ae
:103fd00000f82400210120000401070030cdb300c7
:103fe00065ff07000040eb0063ff070000f82400b6
:103ff00021012000fd00070000c4b3005eff0700a0
:1040000000f8240021012000f8000700d0c8b30008
:1040100059ff0700f0cab30057ff070000f824005b
:1040200021012000f100070000c2b30052ff070089
:104030000040eb0050ff070000f8240021012000a1
:10404000ea00070010cab3004bff070080ccb300a2
:1040500049ff0700a0cdb30047ff070020c0b30011
:1040600045ff070010c8b30043ff0700f0c8b300c6
:1040700041ff070090cdb3003fff070010cfb30012
:104080003dff0700b0cdb3003bff070000c4b30005
:1040900039ff070040cab30037ff070060cab3000a
:1040a00035ff0700f0cab30033ff07000080fa00b5
:1040b000000006001c00fa00c622ef000080eb00a2
:1040c000401588001bff070000b02100710b200085
:1040d000c600070040c6b300f5fd070000b0210090
:1040e000710b2000c1000700a8ff07008dff07002b
:1040f0008040eb0020c0b3004bff0700e0c1290067
:104100007bff070000602300e1162000b7000700d6
:1041100084ff07001281a90012a1a90013e1a800e1
:104120008ce0a8000077210070088800cdc2a800ac
:1041300021088000f0fc2f0000806000200888002b
:1041400004c1a9000421a80005e1a8008c60a80012
:10415000010037000000000001408000f07c2000da
:10416000808f5000fbff340005e1a90013e1a90096
:1041700040168000004078006140600000c0ea0006
:10418000614060000080fb0061006000411680001b
:104190000100a100010070004016880000088000a6
:1041a0006101b8001040800021408000c000dd00a7
:1041b00000002000001f4100019749000024240056
:1041c000f10020001e01be00800f5100818f5900b8
:1041d000110034001e00be00d1f007000240220092
:1041e000439724008cf007002007980031079800bf
:1041f000680147002e009000be009000809fbe0026
:10420000d0c22900801f78000200780072f10700f8
:10421000e68757001f0037000071220001002000d0
:104220001e01be00800f5100818f59001100340023
:104230001e00be00baf0070002002000a3472400c1
:1042400075f00700200798003107980068014700c3
:104250002e009000be009000809fbe0070c3290019
:10426000801f7800020078005bf10700e6875700a6
:1042700008003700680147001e00be00809fbe0096
:1042800010c42900801f78000200780052f1070056
:10429000e68757008040eb0010c0b300e2fe070045
:1042a00080c4290012ff07008040eb0010c0b3005b
:1042b000ddfe0700680047000dff07000028ef0043
:1042c0000228ef000428ef000021ef000a21ef0090
:0c42d00005e1a80013e1a8009fff3700e3
:020000040000fa
:1042dc00000800000600000000000000800800003c
:1042ec001a00000002000000686a6c00747a4c002e
:1042fc000000010000020000040008000010000093
:10430c00000020002b2d23003000000006080000c8
:10431c0058000000020000006e616e00004e41006b
:10432c004e0069006e660000494e46000000000019
:10433c00000000000024400000000000000000000d
:10434c0059400000000000000088c300400000003d
:10435c0000008400d79741000080e0003779c3004b
:10436c00414317006e05b500b5b8930046f5f9004a
:10437c003fe903004f384d00321d3000f9487700fb
:10438c00825a3c00bf737f00dd4f150075000000a2
:10439c009a0800000200000002000000300000003b
:1043ac005e080000220000000200000030313200e4
:1043bc003334350036373800394142004344450028
:1043cc00460030003132330034353600373839008e
:1043dc00616263006465660000000000000000007c
:020000040000fa
:1043ec00f03fb1000180b10006003500ee0309007a
:1043fc0000000000403fb1000180b100fbff3d0018
:10440c001000b000203fb000020035000080090011
:08441c00000000000000060092
:020000040000fa
:0200000401f009
:04000000f2bf00004b
:020000040000fa
:0200000401f009
:04000400ff7f00007a
:020000040000fa
:0200000401f009
:04000800ffff0000f6
:020000040000fa
:0200000401f009
:04001400ffff0000ea
:020000040000fa
:0200000401f009
:04001800ffff0000e6
:00000001FF
